{
  "_format": "hh-sol-artifact-1",
  "contractName": "NFTMarketplace",
  "sourceName": "contracts/NFTMarketplace.sol",
  "abi": [
    {
      "inputs": [],
      "stateMutability": "nonpayable",
      "type": "constructor"
    },
    {
      "anonymous": false,
      "inputs": [
        {
          "indexed": true,
          "internalType": "address",
          "name": "owner",
          "type": "address"
        },
        {
          "indexed": true,
          "internalType": "address",
          "name": "approved",
          "type": "address"
        },
        {
          "indexed": true,
          "internalType": "uint256",
          "name": "tokenId",
          "type": "uint256"
        }
      ],
      "name": "Approval",
      "type": "event"
    },
    {
      "anonymous": false,
      "inputs": [
        {
          "indexed": true,
          "internalType": "address",
          "name": "owner",
          "type": "address"
        },
        {
          "indexed": true,
          "internalType": "address",
          "name": "operator",
          "type": "address"
        },
        {
          "indexed": false,
          "internalType": "bool",
          "name": "approved",
          "type": "bool"
        }
      ],
      "name": "ApprovalForAll",
      "type": "event"
    },
    {
      "anonymous": false,
      "inputs": [
        {
          "indexed": false,
          "internalType": "uint256",
          "name": "_fromTokenId",
          "type": "uint256"
        },
        {
          "indexed": false,
          "internalType": "uint256",
          "name": "_toTokenId",
          "type": "uint256"
        }
      ],
      "name": "BatchMetadataUpdate",
      "type": "event"
    },
    {
      "anonymous": false,
      "inputs": [
        {
          "indexed": true,
          "internalType": "uint256",
          "name": "tokenId",
          "type": "uint256"
        },
        {
          "indexed": false,
          "internalType": "address",
          "name": "seller",
          "type": "address"
        },
        {
          "indexed": false,
          "internalType": "address",
          "name": "owner",
          "type": "address"
        },
        {
          "indexed": false,
          "internalType": "uint256",
          "name": "price",
          "type": "uint256"
        },
        {
          "indexed": false,
          "internalType": "bool",
          "name": "sold",
          "type": "bool"
        }
      ],
      "name": "MarketItemCreated",
      "type": "event"
    },
    {
      "anonymous": false,
      "inputs": [
        {
          "indexed": false,
          "internalType": "uint256",
          "name": "_tokenId",
          "type": "uint256"
        }
      ],
      "name": "MetadataUpdate",
      "type": "event"
    },
    {
      "anonymous": false,
      "inputs": [
        {
          "indexed": true,
          "internalType": "address",
          "name": "from",
          "type": "address"
        },
        {
          "indexed": true,
          "internalType": "address",
          "name": "to",
          "type": "address"
        },
        {
          "indexed": true,
          "internalType": "uint256",
          "name": "tokenId",
          "type": "uint256"
        }
      ],
      "name": "Transfer",
      "type": "event"
    },
    {
      "inputs": [
        {
          "internalType": "address",
          "name": "to",
          "type": "address"
        },
        {
          "internalType": "uint256",
          "name": "tokenId",
          "type": "uint256"
        }
      ],
      "name": "approve",
      "outputs": [],
      "stateMutability": "nonpayable",
      "type": "function"
    },
    {
      "inputs": [
        {
          "internalType": "address",
          "name": "owner",
          "type": "address"
        }
      ],
      "name": "balanceOf",
      "outputs": [
        {
          "internalType": "uint256",
          "name": "",
          "type": "uint256"
        }
      ],
      "stateMutability": "view",
      "type": "function"
    },
    {
      "inputs": [
        {
          "internalType": "uint256",
          "name": "tokenId",
          "type": "uint256"
        }
      ],
      "name": "createMarketSale",
      "outputs": [],
      "stateMutability": "payable",
      "type": "function"
    },
    {
      "inputs": [
        {
          "internalType": "string",
          "name": "tokenURI",
          "type": "string"
        },
        {
          "internalType": "uint256",
          "name": "price",
          "type": "uint256"
        }
      ],
      "name": "createToken",
      "outputs": [
        {
          "internalType": "uint256",
          "name": "",
          "type": "uint256"
        }
      ],
      "stateMutability": "payable",
      "type": "function"
    },
    {
      "inputs": [],
      "name": "fetchItemsListed",
      "outputs": [
        {
          "components": [
            {
              "internalType": "uint256",
              "name": "tokenId",
              "type": "uint256"
            },
            {
              "internalType": "address payable",
              "name": "seller",
              "type": "address"
            },
            {
              "internalType": "address payable",
              "name": "owner",
              "type": "address"
            },
            {
              "internalType": "uint256",
              "name": "price",
              "type": "uint256"
            },
            {
              "internalType": "bool",
              "name": "sold",
              "type": "bool"
            }
          ],
          "internalType": "struct NFTMarketplace.MarketItem[]",
          "name": "",
          "type": "tuple[]"
        }
      ],
      "stateMutability": "view",
      "type": "function"
    },
    {
      "inputs": [],
      "name": "fetchMarketItems",
      "outputs": [
        {
          "components": [
            {
              "internalType": "uint256",
              "name": "tokenId",
              "type": "uint256"
            },
            {
              "internalType": "address payable",
              "name": "seller",
              "type": "address"
            },
            {
              "internalType": "address payable",
              "name": "owner",
              "type": "address"
            },
            {
              "internalType": "uint256",
              "name": "price",
              "type": "uint256"
            },
            {
              "internalType": "bool",
              "name": "sold",
              "type": "bool"
            }
          ],
          "internalType": "struct NFTMarketplace.MarketItem[]",
          "name": "",
          "type": "tuple[]"
        }
      ],
      "stateMutability": "view",
      "type": "function"
    },
    {
      "inputs": [],
      "name": "fetchMyNFTs",
      "outputs": [
        {
          "components": [
            {
              "internalType": "uint256",
              "name": "tokenId",
              "type": "uint256"
            },
            {
              "internalType": "address payable",
              "name": "seller",
              "type": "address"
            },
            {
              "internalType": "address payable",
              "name": "owner",
              "type": "address"
            },
            {
              "internalType": "uint256",
              "name": "price",
              "type": "uint256"
            },
            {
              "internalType": "bool",
              "name": "sold",
              "type": "bool"
            }
          ],
          "internalType": "struct NFTMarketplace.MarketItem[]",
          "name": "",
          "type": "tuple[]"
        }
      ],
      "stateMutability": "view",
      "type": "function"
    },
    {
      "inputs": [
        {
          "internalType": "uint256",
          "name": "tokenId",
          "type": "uint256"
        }
      ],
      "name": "getApproved",
      "outputs": [
        {
          "internalType": "address",
          "name": "",
          "type": "address"
        }
      ],
      "stateMutability": "view",
      "type": "function"
    },
    {
      "inputs": [],
      "name": "getListingPrice",
      "outputs": [
        {
          "internalType": "uint256",
          "name": "",
          "type": "uint256"
        }
      ],
      "stateMutability": "view",
      "type": "function"
    },
    {
      "inputs": [
        {
          "internalType": "address",
          "name": "owner",
          "type": "address"
        },
        {
          "internalType": "address",
          "name": "operator",
          "type": "address"
        }
      ],
      "name": "isApprovedForAll",
      "outputs": [
        {
          "internalType": "bool",
          "name": "",
          "type": "bool"
        }
      ],
      "stateMutability": "view",
      "type": "function"
    },
    {
      "inputs": [],
      "name": "name",
      "outputs": [
        {
          "internalType": "string",
          "name": "",
          "type": "string"
        }
      ],
      "stateMutability": "view",
      "type": "function"
    },
    {
      "inputs": [
        {
          "internalType": "uint256",
          "name": "tokenId",
          "type": "uint256"
        }
      ],
      "name": "ownerOf",
      "outputs": [
        {
          "internalType": "address",
          "name": "",
          "type": "address"
        }
      ],
      "stateMutability": "view",
      "type": "function"
    },
    {
      "inputs": [
        {
          "internalType": "uint256",
          "name": "tokenId",
          "type": "uint256"
        },
        {
          "internalType": "uint256",
          "name": "price",
          "type": "uint256"
        }
      ],
      "name": "resellToken",
      "outputs": [],
      "stateMutability": "payable",
      "type": "function"
    },
    {
      "inputs": [
        {
          "internalType": "address",
          "name": "from",
          "type": "address"
        },
        {
          "internalType": "address",
          "name": "to",
          "type": "address"
        },
        {
          "internalType": "uint256",
          "name": "tokenId",
          "type": "uint256"
        }
      ],
      "name": "safeTransferFrom",
      "outputs": [],
      "stateMutability": "nonpayable",
      "type": "function"
    },
    {
      "inputs": [
        {
          "internalType": "address",
          "name": "from",
          "type": "address"
        },
        {
          "internalType": "address",
          "name": "to",
          "type": "address"
        },
        {
          "internalType": "uint256",
          "name": "tokenId",
          "type": "uint256"
        },
        {
          "internalType": "bytes",
          "name": "data",
          "type": "bytes"
        }
      ],
      "name": "safeTransferFrom",
      "outputs": [],
      "stateMutability": "nonpayable",
      "type": "function"
    },
    {
      "inputs": [
        {
          "internalType": "address",
          "name": "operator",
          "type": "address"
        },
        {
          "internalType": "bool",
          "name": "approved",
          "type": "bool"
        }
      ],
      "name": "setApprovalForAll",
      "outputs": [],
      "stateMutability": "nonpayable",
      "type": "function"
    },
    {
      "inputs": [
        {
          "internalType": "bytes4",
          "name": "interfaceId",
          "type": "bytes4"
        }
      ],
      "name": "supportsInterface",
      "outputs": [
        {
          "internalType": "bool",
          "name": "",
          "type": "bool"
        }
      ],
      "stateMutability": "view",
      "type": "function"
    },
    {
      "inputs": [],
      "name": "symbol",
      "outputs": [
        {
          "internalType": "string",
          "name": "",
          "type": "string"
        }
      ],
      "stateMutability": "view",
      "type": "function"
    },
    {
      "inputs": [
        {
          "internalType": "uint256",
          "name": "tokenId",
          "type": "uint256"
        }
      ],
      "name": "tokenURI",
      "outputs": [
        {
          "internalType": "string",
          "name": "",
          "type": "string"
        }
      ],
      "stateMutability": "view",
      "type": "function"
    },
    {
      "inputs": [
        {
          "internalType": "address",
          "name": "from",
          "type": "address"
        },
        {
          "internalType": "address",
          "name": "to",
          "type": "address"
        },
        {
          "internalType": "uint256",
          "name": "tokenId",
          "type": "uint256"
        }
      ],
      "name": "transferFrom",
      "outputs": [],
      "stateMutability": "nonpayable",
      "type": "function"
    },
    {
      "inputs": [
        {
          "internalType": "uint256",
          "name": "_listingPrice",
          "type": "uint256"
        }
      ],
      "name": "updateListingPrice",
      "outputs": [],
      "stateMutability": "payable",
      "type": "function"
    },
    {
      "inputs": [],
      "name": "withdraw",
      "outputs": [],
      "stateMutability": "nonpayable",
      "type": "function"
    }
  ],
  "bytecode": "0x608060405264e8d4a510006009553480156200001a57600080fd5b506040518060400160405280601081526020017f4d657461766572736520546f6b656e73000000000000000000000000000000008152506040518060400160405280600481526020017f4d4554540000000000000000000000000000000000000000000000000000000081525081600090816200009891906200036e565b508060019081620000aa91906200036e565b50505033600a60006101000a81548173ffffffffffffffffffffffffffffffffffffffff021916908373ffffffffffffffffffffffffffffffffffffffff16021790555062000455565b600081519050919050565b7f4e487b7100000000000000000000000000000000000000000000000000000000600052604160045260246000fd5b7f4e487b7100000000000000000000000000000000000000000000000000000000600052602260045260246000fd5b600060028204905060018216806200017657607f821691505b6020821081036200018c576200018b6200012e565b5b50919050565b60008190508160005260206000209050919050565b60006020601f8301049050919050565b600082821b905092915050565b600060088302620001f67fffffffffffffffffffffffffffffffffffffffffffffffffffffffffffffffff82620001b7565b620002028683620001b7565b95508019841693508086168417925050509392505050565b6000819050919050565b6000819050919050565b60006200024f6200024962000243846200021a565b62000224565b6200021a565b9050919050565b6000819050919050565b6200026b836200022e565b620002836200027a8262000256565b848454620001c4565b825550505050565b600090565b6200029a6200028b565b620002a781848462000260565b505050565b5b81811015620002cf57620002c360008262000290565b600181019050620002ad565b5050565b601f8211156200031e57620002e88162000192565b620002f384620001a7565b8101602085101562000303578190505b6200031b6200031285620001a7565b830182620002ac565b50505b505050565b600082821c905092915050565b6000620003436000198460080262000323565b1980831691505092915050565b60006200035e838362000330565b9150826002028217905092915050565b6200037982620000f4565b67ffffffffffffffff811115620003955762000394620000ff565b5b620003a182546200015d565b620003ae828285620002d3565b600060209050601f831160018114620003e65760008415620003d1578287015190505b620003dd858262000350565b8655506200044d565b601f198416620003f68662000192565b60005b828110156200042057848901518255600182019150602085019450602081019050620003f9565b868310156200044057848901516200043c601f89168262000330565b8355505b6001600288020188555050505b505050505050565b61450d80620004656000396000f3fe6080604052600436106101355760003560e01c80636352211e116100ab578063ae677aa31161006f578063ae677aa31461041b578063b88d4fde14610437578063be9af53614610460578063c87b56dd1461047c578063e219fc75146104b9578063e985e9c5146104d557610135565b80636352211e1461031d57806370a082311461035a57806372b3b6201461039757806395d89b41146103c7578063a22cb465146103f257610135565b806312e85585116100fd57806312e8558514610233578063202e37401461025e57806323b872dd146102895780633ccfd60b146102b257806342842e0e146102c957806345f8fa80146102f257610135565b806301ffc9a71461013a57806306fdde0314610177578063081812fc146101a2578063095ea7b3146101df5780630f08efe014610208575b600080fd5b34801561014657600080fd5b50610161600480360381019061015c9190612cd3565b610512565b60405161016e9190612d1b565b60405180910390f35b34801561018357600080fd5b5061018c610573565b6040516101999190612dc6565b60405180910390f35b3480156101ae57600080fd5b506101c960048036038101906101c49190612e1e565b610605565b6040516101d69190612e8c565b60405180910390f35b3480156101eb57600080fd5b5061020660048036038101906102019190612ed3565b61064b565b005b34801561021457600080fd5b5061021d610762565b60405161022a9190613069565b60405180910390f35b34801561023f57600080fd5b506102486109ca565b604051610255919061309a565b60405180910390f35b34801561026a57600080fd5b506102736109d4565b6040516102809190613069565b60405180910390f35b34801561029557600080fd5b506102b060048036038101906102ab91906130b5565b610cc0565b005b3480156102be57600080fd5b506102c7610d20565b005b3480156102d557600080fd5b506102f060048036038101906102eb91906130b5565b610db2565b005b3480156102fe57600080fd5b50610307610dd2565b6040516103149190613069565b60405180910390f35b34801561032957600080fd5b50610344600480360381019061033f9190612e1e565b6110be565b6040516103519190612e8c565b60405180910390f35b34801561036657600080fd5b50610381600480360381019061037c9190613108565b611144565b60405161038e919061309a565b60405180910390f35b6103b160048036038101906103ac919061326a565b6111fb565b6040516103be919061309a565b60405180910390f35b3480156103d357600080fd5b506103dc61123d565b6040516103e99190612dc6565b60405180910390f35b3480156103fe57600080fd5b50610419600480360381019061041491906132f2565b6112cf565b005b61043560048036038101906104309190612e1e565b6112e5565b005b34801561044357600080fd5b5061045e600480360381019061045991906133d3565b61140f565b005b61047a60048036038101906104759190612e1e565b611471565b005b34801561048857600080fd5b506104a3600480360381019061049e9190612e1e565b6116a9565b6040516104b09190612dc6565b60405180910390f35b6104d360048036038101906104ce9190613456565b6117bb565b005b3480156104e157600080fd5b506104fc60048036038101906104f79190613496565b6119b0565b6040516105099190612d1b565b60405180910390f35b6000634906490660e01b7bffffffffffffffffffffffffffffffffffffffffffffffffffffffff1916827bffffffffffffffffffffffffffffffffffffffffffffffffffffffff1916148061056c575061056b82611a44565b5b9050919050565b60606000805461058290613505565b80601f01602080910402602001604051908101604052809291908181526020018280546105ae90613505565b80156105fb5780601f106105d0576101008083540402835291602001916105fb565b820191906000526020600020905b8154815290600101906020018083116105de57829003601f168201915b5050505050905090565b600061061082611b26565b6004600083815260200190815260200160002060009054906101000a900473ffffffffffffffffffffffffffffffffffffffff169050919050565b6000610656826110be565b90508073ffffffffffffffffffffffffffffffffffffffff168373ffffffffffffffffffffffffffffffffffffffff16036106c6576040517f08c379a00000000000000000000000000000000000000000000000000000000081526004016106bd906135a8565b60405180910390fd5b8073ffffffffffffffffffffffffffffffffffffffff166106e5611b71565b73ffffffffffffffffffffffffffffffffffffffff16148061071457506107138161070e611b71565b6119b0565b5b610753576040517f08c379a000000000000000000000000000000000000000000000000000000000815260040161074a9061363a565b60405180910390fd5b61075d8383611b79565b505050565b606060006107706007611c32565b9050600061077e6008611c32565b6107886007611c32565b6107929190613689565b90506000808267ffffffffffffffff8111156107b1576107b061313f565b5b6040519080825280602002602001820160405280156107ea57816020015b6107d7612c0a565b8152602001906001900390816107cf5790505b50905060005b848110156109bf573073ffffffffffffffffffffffffffffffffffffffff16600b600060018461082091906136bd565b815260200190815260200160002060020160009054906101000a900473ffffffffffffffffffffffffffffffffffffffff1673ffffffffffffffffffffffffffffffffffffffff16036109ac57600060018261087c91906136bd565b90506000600b60008381526020019081526020016000209050806040518060a0016040529081600082015481526020016001820160009054906101000a900473ffffffffffffffffffffffffffffffffffffffff1673ffffffffffffffffffffffffffffffffffffffff1673ffffffffffffffffffffffffffffffffffffffff1681526020016002820160009054906101000a900473ffffffffffffffffffffffffffffffffffffffff1673ffffffffffffffffffffffffffffffffffffffff1673ffffffffffffffffffffffffffffffffffffffff168152602001600382015481526020016004820160009054906101000a900460ff16151515158152505084868151811061098f5761098e6136f1565b5b60200260200101819052506001856109a791906136bd565b945050505b80806109b790613720565b9150506107f0565b508094505050505090565b6000600954905090565b606060006109e26007611c32565b905060008060005b83811015610a8a573373ffffffffffffffffffffffffffffffffffffffff16600b6000600184610a1a91906136bd565b815260200190815260200160002060020160009054906101000a900473ffffffffffffffffffffffffffffffffffffffff1673ffffffffffffffffffffffffffffffffffffffff1603610a7757600183610a7491906136bd565b92505b8080610a8290613720565b9150506109ea565b5060008267ffffffffffffffff811115610aa757610aa661313f565b5b604051908082528060200260200182016040528015610ae057816020015b610acd612c0a565b815260200190600190039081610ac55790505b50905060005b84811015610cb5573373ffffffffffffffffffffffffffffffffffffffff16600b6000600184610b1691906136bd565b815260200190815260200160002060020160009054906101000a900473ffffffffffffffffffffffffffffffffffffffff1673ffffffffffffffffffffffffffffffffffffffff1603610ca2576000600182610b7291906136bd565b90506000600b60008381526020019081526020016000209050806040518060a0016040529081600082015481526020016001820160009054906101000a900473ffffffffffffffffffffffffffffffffffffffff1673ffffffffffffffffffffffffffffffffffffffff1673ffffffffffffffffffffffffffffffffffffffff1681526020016002820160009054906101000a900473ffffffffffffffffffffffffffffffffffffffff1673ffffffffffffffffffffffffffffffffffffffff1673ffffffffffffffffffffffffffffffffffffffff168152602001600382015481526020016004820160009054906101000a900460ff161515151581525050848681518110610c8557610c846136f1565b5b6020026020010181905250600185610c9d91906136bd565b945050505b8080610cad90613720565b915050610ae6565b508094505050505090565b610cd1610ccb611b71565b82611c40565b610d10576040517f08c379a0000000000000000000000000000000000000000000000000000000008152600401610d07906137da565b60405180910390fd5b610d1b838383611cd5565b505050565b600047905060008111610d68576040517f08c379a0000000000000000000000000000000000000000000000000000000008152600401610d5f90613846565b60405180910390fd5b3373ffffffffffffffffffffffffffffffffffffffff166108fc829081150290604051600060405180830381858888f19350505050158015610dae573d6000803e3d6000fd5b5050565b610dcd8383836040518060200160405280600081525061140f565b505050565b60606000610de06007611c32565b905060008060005b83811015610e88573373ffffffffffffffffffffffffffffffffffffffff16600b6000600184610e1891906136bd565b815260200190815260200160002060010160009054906101000a900473ffffffffffffffffffffffffffffffffffffffff1673ffffffffffffffffffffffffffffffffffffffff1603610e7557600183610e7291906136bd565b92505b8080610e8090613720565b915050610de8565b5060008267ffffffffffffffff811115610ea557610ea461313f565b5b604051908082528060200260200182016040528015610ede57816020015b610ecb612c0a565b815260200190600190039081610ec35790505b50905060005b848110156110b3573373ffffffffffffffffffffffffffffffffffffffff16600b6000600184610f1491906136bd565b815260200190815260200160002060010160009054906101000a900473ffffffffffffffffffffffffffffffffffffffff1673ffffffffffffffffffffffffffffffffffffffff16036110a0576000600182610f7091906136bd565b90506000600b60008381526020019081526020016000209050806040518060a0016040529081600082015481526020016001820160009054906101000a900473ffffffffffffffffffffffffffffffffffffffff1673ffffffffffffffffffffffffffffffffffffffff1673ffffffffffffffffffffffffffffffffffffffff1681526020016002820160009054906101000a900473ffffffffffffffffffffffffffffffffffffffff1673ffffffffffffffffffffffffffffffffffffffff1673ffffffffffffffffffffffffffffffffffffffff168152602001600382015481526020016004820160009054906101000a900460ff161515151581525050848681518110611083576110826136f1565b5b602002602001018190525060018561109b91906136bd565b945050505b80806110ab90613720565b915050610ee4565b508094505050505090565b6000806110ca83611fce565b9050600073ffffffffffffffffffffffffffffffffffffffff168173ffffffffffffffffffffffffffffffffffffffff160361113b576040517f08c379a0000000000000000000000000000000000000000000000000000000008152600401611132906138b2565b60405180910390fd5b80915050919050565b60008073ffffffffffffffffffffffffffffffffffffffff168273ffffffffffffffffffffffffffffffffffffffff16036111b4576040517f08c379a00000000000000000000000000000000000000000000000000000000081526004016111ab90613944565b60405180910390fd5b600360008373ffffffffffffffffffffffffffffffffffffffff1673ffffffffffffffffffffffffffffffffffffffff168152602001908152602001600020549050919050565b6000611207600761200b565b60006112136007611c32565b905061121f3382612021565b611229818561223e565b61123381846122e2565b8091505092915050565b60606001805461124c90613505565b80601f016020809104026020016040519081016040528092919081815260200182805461127890613505565b80156112c55780601f1061129a576101008083540402835291602001916112c5565b820191906000526020600020905b8154815290600101906020018083116112a857829003601f168201915b5050505050905090565b6112e16112da611b71565b83836124e5565b5050565b600a60009054906101000a900473ffffffffffffffffffffffffffffffffffffffff1673ffffffffffffffffffffffffffffffffffffffff163373ffffffffffffffffffffffffffffffffffffffff1614611375576040517f08c379a000000000000000000000000000000000000000000000000000000000815260040161136c906139d6565b60405180910390fd5b3373ffffffffffffffffffffffffffffffffffffffff16600a60009054906101000a900473ffffffffffffffffffffffffffffffffffffffff1673ffffffffffffffffffffffffffffffffffffffff1614611405576040517f08c379a00000000000000000000000000000000000000000000000000000000081526004016113fc90613a68565b60405180910390fd5b8060098190555050565b61142061141a611b71565b83611c40565b61145f576040517f08c379a0000000000000000000000000000000000000000000000000000000008152600401611456906137da565b60405180910390fd5b61146b84848484612651565b50505050565b6000600b60008381526020019081526020016000206003015490508034146114ce576040517f08c379a00000000000000000000000000000000000000000000000000000000081526004016114c590613afa565b60405180910390fd5b33600b600084815260200190815260200160002060020160006101000a81548173ffffffffffffffffffffffffffffffffffffffff021916908373ffffffffffffffffffffffffffffffffffffffff1602179055506001600b600084815260200190815260200160002060040160006101000a81548160ff02191690831515021790555061155c600861200b565b611567303384611cd5565b600a60009054906101000a900473ffffffffffffffffffffffffffffffffffffffff1673ffffffffffffffffffffffffffffffffffffffff166108fc6009549081150290604051600060405180830381858888f193505050501580156115d1573d6000803e3d6000fd5b50600b600083815260200190815260200160002060010160009054906101000a900473ffffffffffffffffffffffffffffffffffffffff1673ffffffffffffffffffffffffffffffffffffffff166108fc349081150290604051600060405180830381858888f1935050505015801561164e573d6000803e3d6000fd5b506000600b600084815260200190815260200160002060010160006101000a81548173ffffffffffffffffffffffffffffffffffffffff021916908373ffffffffffffffffffffffffffffffffffffffff1602179055505050565b60606116b482611b26565b60006006600084815260200190815260200160002080546116d490613505565b80601f016020809104026020016040519081016040528092919081815260200182805461170090613505565b801561174d5780601f106117225761010080835404028352916020019161174d565b820191906000526020600020905b81548152906001019060200180831161173057829003601f168201915b50505050509050600061175e6126ad565b905060008151036117735781925050506117b6565b6000825111156117a8578082604051602001611790929190613b56565b604051602081830303815290604052925050506117b6565b6117b1846126c4565b925050505b919050565b3373ffffffffffffffffffffffffffffffffffffffff16600b600084815260200190815260200160002060020160009054906101000a900473ffffffffffffffffffffffffffffffffffffffff1673ffffffffffffffffffffffffffffffffffffffff161461185f576040517f08c379a000000000000000000000000000000000000000000000000000000000815260040161185690613bec565b60405180910390fd5b60095434146118a3576040517f08c379a000000000000000000000000000000000000000000000000000000000815260040161189a90613c7e565b60405180910390fd5b6000600b600084815260200190815260200160002060040160006101000a81548160ff02191690831515021790555080600b60008481526020019081526020016000206003018190555033600b600084815260200190815260200160002060010160006101000a81548173ffffffffffffffffffffffffffffffffffffffff021916908373ffffffffffffffffffffffffffffffffffffffff16021790555030600b600084815260200190815260200160002060020160006101000a81548173ffffffffffffffffffffffffffffffffffffffff021916908373ffffffffffffffffffffffffffffffffffffffff1602179055506119a1600861272c565b6119ac333084611cd5565b5050565b6000600560008473ffffffffffffffffffffffffffffffffffffffff1673ffffffffffffffffffffffffffffffffffffffff16815260200190815260200160002060008373ffffffffffffffffffffffffffffffffffffffff1673ffffffffffffffffffffffffffffffffffffffff16815260200190815260200160002060009054906101000a900460ff16905092915050565b60007f80ac58cd000000000000000000000000000000000000000000000000000000007bffffffffffffffffffffffffffffffffffffffffffffffffffffffff1916827bffffffffffffffffffffffffffffffffffffffffffffffffffffffff19161480611b0f57507f5b5e139f000000000000000000000000000000000000000000000000000000007bffffffffffffffffffffffffffffffffffffffffffffffffffffffff1916827bffffffffffffffffffffffffffffffffffffffffffffffffffffffff1916145b80611b1f5750611b1e82612788565b5b9050919050565b611b2f816127f2565b611b6e576040517f08c379a0000000000000000000000000000000000000000000000000000000008152600401611b65906138b2565b60405180910390fd5b50565b600033905090565b816004600083815260200190815260200160002060006101000a81548173ffffffffffffffffffffffffffffffffffffffff021916908373ffffffffffffffffffffffffffffffffffffffff160217905550808273ffffffffffffffffffffffffffffffffffffffff16611bec836110be565b73ffffffffffffffffffffffffffffffffffffffff167f8c5be1e5ebec7d5bd14f71427d1e84f3dd0314c0f7b2291e5b200ac8c7c3b92560405160405180910390a45050565b600081600001549050919050565b600080611c4c836110be565b90508073ffffffffffffffffffffffffffffffffffffffff168473ffffffffffffffffffffffffffffffffffffffff161480611c8e5750611c8d81856119b0565b5b80611ccc57508373ffffffffffffffffffffffffffffffffffffffff16611cb484610605565b73ffffffffffffffffffffffffffffffffffffffff16145b91505092915050565b8273ffffffffffffffffffffffffffffffffffffffff16611cf5826110be565b73ffffffffffffffffffffffffffffffffffffffff1614611d4b576040517f08c379a0000000000000000000000000000000000000000000000000000000008152600401611d4290613d10565b60405180910390fd5b600073ffffffffffffffffffffffffffffffffffffffff168273ffffffffffffffffffffffffffffffffffffffff1603611dba576040517f08c379a0000000000000000000000000000000000000000000000000000000008152600401611db190613da2565b60405180910390fd5b611dc78383836001612833565b8273ffffffffffffffffffffffffffffffffffffffff16611de7826110be565b73ffffffffffffffffffffffffffffffffffffffff1614611e3d576040517f08c379a0000000000000000000000000000000000000000000000000000000008152600401611e3490613d10565b60405180910390fd5b6004600082815260200190815260200160002060006101000a81549073ffffffffffffffffffffffffffffffffffffffff02191690556001600360008573ffffffffffffffffffffffffffffffffffffffff1673ffffffffffffffffffffffffffffffffffffffff168152602001908152602001600020600082825403925050819055506001600360008473ffffffffffffffffffffffffffffffffffffffff1673ffffffffffffffffffffffffffffffffffffffff16815260200190815260200160002060008282540192505081905550816002600083815260200190815260200160002060006101000a81548173ffffffffffffffffffffffffffffffffffffffff021916908373ffffffffffffffffffffffffffffffffffffffff160217905550808273ffffffffffffffffffffffffffffffffffffffff168473ffffffffffffffffffffffffffffffffffffffff167fddf252ad1be2c89b69c2b068fc378daa952ba7f163c4a11628f55a4df523b3ef60405160405180910390a4611fc98383836001612839565b505050565b60006002600083815260200190815260200160002060009054906101000a900473ffffffffffffffffffffffffffffffffffffffff169050919050565b6001816000016000828254019250508190555050565b600073ffffffffffffffffffffffffffffffffffffffff168273ffffffffffffffffffffffffffffffffffffffff1603612090576040517f08c379a000000000000000000000000000000000000000000000000000000000815260040161208790613e0e565b60405180910390fd5b612099816127f2565b156120d9576040517f08c379a00000000000000000000000000000000000000000000000000000000081526004016120d090613e7a565b60405180910390fd5b6120e7600083836001612833565b6120f0816127f2565b15612130576040517f08c379a000000000000000000000000000000000000000000000000000000000815260040161212790613e7a565b60405180910390fd5b6001600360008473ffffffffffffffffffffffffffffffffffffffff1673ffffffffffffffffffffffffffffffffffffffff16815260200190815260200160002060008282540192505081905550816002600083815260200190815260200160002060006101000a81548173ffffffffffffffffffffffffffffffffffffffff021916908373ffffffffffffffffffffffffffffffffffffffff160217905550808273ffffffffffffffffffffffffffffffffffffffff16600073ffffffffffffffffffffffffffffffffffffffff167fddf252ad1be2c89b69c2b068fc378daa952ba7f163c4a11628f55a4df523b3ef60405160405180910390a461223a600083836001612839565b5050565b612247826127f2565b612286576040517f08c379a000000000000000000000000000000000000000000000000000000000815260040161227d90613f0c565b60405180910390fd5b806006600084815260200190815260200160002090816122a691906140d8565b507ff8e1a15aba9398e019f0b49df1a4fde98ee17ae345cb5f6b5e2c27f5033e8ce7826040516122d6919061309a565b60405180910390a15050565b60008111612325576040517f08c379a000000000000000000000000000000000000000000000000000000000815260040161231c906141f6565b60405180910390fd5b6009543414612369576040517f08c379a000000000000000000000000000000000000000000000000000000000815260040161236090613c7e565b60405180910390fd5b6040518060a001604052808381526020013373ffffffffffffffffffffffffffffffffffffffff1681526020013073ffffffffffffffffffffffffffffffffffffffff16815260200182815260200160001515815250600b60008481526020019081526020016000206000820151816000015560208201518160010160006101000a81548173ffffffffffffffffffffffffffffffffffffffff021916908373ffffffffffffffffffffffffffffffffffffffff16021790555060408201518160020160006101000a81548173ffffffffffffffffffffffffffffffffffffffff021916908373ffffffffffffffffffffffffffffffffffffffff1602179055506060820151816003015560808201518160040160006101000a81548160ff0219169083151502179055509050506124a2333084611cd5565b817fb640004f1d14576d0c209e240cad0410e0d8c0c33a09375861fbadae2588a98d33308460006040516124d99493929190614216565b60405180910390a25050565b8173ffffffffffffffffffffffffffffffffffffffff168373ffffffffffffffffffffffffffffffffffffffff1603612553576040517f08c379a000000000000000000000000000000000000000000000000000000000815260040161254a906142a7565b60405180910390fd5b80600560008573ffffffffffffffffffffffffffffffffffffffff1673ffffffffffffffffffffffffffffffffffffffff16815260200190815260200160002060008473ffffffffffffffffffffffffffffffffffffffff1673ffffffffffffffffffffffffffffffffffffffff16815260200190815260200160002060006101000a81548160ff0219169083151502179055508173ffffffffffffffffffffffffffffffffffffffff168373ffffffffffffffffffffffffffffffffffffffff167f17307eab39ab6107e8899845ad3d59bd9653f200f220920489ca2b5937696c31836040516126449190612d1b565b60405180910390a3505050565b61265c848484611cd5565b6126688484848461283f565b6126a7576040517f08c379a000000000000000000000000000000000000000000000000000000000815260040161269e90614339565b60405180910390fd5b50505050565b606060405180602001604052806000815250905090565b60606126cf82611b26565b60006126d96126ad565b905060008151116126f95760405180602001604052806000815250612724565b80612703846129c6565b604051602001612714929190613b56565b6040516020818303038152906040525b915050919050565b60008160000154905060008111612778576040517f08c379a000000000000000000000000000000000000000000000000000000000815260040161276f906143a5565b60405180910390fd5b6001810382600001819055505050565b60007f01ffc9a7000000000000000000000000000000000000000000000000000000007bffffffffffffffffffffffffffffffffffffffffffffffffffffffff1916827bffffffffffffffffffffffffffffffffffffffffffffffffffffffff1916149050919050565b60008073ffffffffffffffffffffffffffffffffffffffff1661281483611fce565b73ffffffffffffffffffffffffffffffffffffffff1614159050919050565b50505050565b50505050565b60006128608473ffffffffffffffffffffffffffffffffffffffff16612a94565b156129b9578373ffffffffffffffffffffffffffffffffffffffff1663150b7a02612889611b71565b8786866040518563ffffffff1660e01b81526004016128ab949392919061441a565b6020604051808303816000875af19250505080156128e757506040513d601f19601f820116820180604052508101906128e4919061447b565b60015b612969573d8060008114612917576040519150601f19603f3d011682016040523d82523d6000602084013e61291c565b606091505b506000815103612961576040517f08c379a000000000000000000000000000000000000000000000000000000000815260040161295890614339565b60405180910390fd5b805181602001fd5b63150b7a0260e01b7bffffffffffffffffffffffffffffffffffffffffffffffffffffffff1916817bffffffffffffffffffffffffffffffffffffffffffffffffffffffff1916149150506129be565b600190505b949350505050565b6060600060016129d584612ab7565b01905060008167ffffffffffffffff8111156129f4576129f361313f565b5b6040519080825280601f01601f191660200182016040528015612a265781602001600182028036833780820191505090505b509050600082602001820190505b600115612a89578080600190039150507f3031323334353637383961626364656600000000000000000000000000000000600a86061a8153600a8581612a7d57612a7c6144a8565b5b04945060008503612a34575b819350505050919050565b6000808273ffffffffffffffffffffffffffffffffffffffff163b119050919050565b600080600090507a184f03e93ff9f4daa797ed6e38ed64bf6a1f0100000000000000008310612b15577a184f03e93ff9f4daa797ed6e38ed64bf6a1f0100000000000000008381612b0b57612b0a6144a8565b5b0492506040810190505b6d04ee2d6d415b85acef81000000008310612b52576d04ee2d6d415b85acef81000000008381612b4857612b476144a8565b5b0492506020810190505b662386f26fc100008310612b8157662386f26fc100008381612b7757612b766144a8565b5b0492506010810190505b6305f5e1008310612baa576305f5e1008381612ba057612b9f6144a8565b5b0492506008810190505b6127108310612bcf576127108381612bc557612bc46144a8565b5b0492506004810190505b60648310612bf25760648381612be857612be76144a8565b5b0492506002810190505b600a8310612c01576001810190505b80915050919050565b6040518060a0016040528060008152602001600073ffffffffffffffffffffffffffffffffffffffff168152602001600073ffffffffffffffffffffffffffffffffffffffff168152602001600081526020016000151581525090565b6000604051905090565b600080fd5b600080fd5b60007fffffffff0000000000000000000000000000000000000000000000000000000082169050919050565b612cb081612c7b565b8114612cbb57600080fd5b50565b600081359050612ccd81612ca7565b92915050565b600060208284031215612ce957612ce8612c71565b5b6000612cf784828501612cbe565b91505092915050565b60008115159050919050565b612d1581612d00565b82525050565b6000602082019050612d306000830184612d0c565b92915050565b600081519050919050565b600082825260208201905092915050565b60005b83811015612d70578082015181840152602081019050612d55565b60008484015250505050565b6000601f19601f8301169050919050565b6000612d9882612d36565b612da28185612d41565b9350612db2818560208601612d52565b612dbb81612d7c565b840191505092915050565b60006020820190508181036000830152612de08184612d8d565b905092915050565b6000819050919050565b612dfb81612de8565b8114612e0657600080fd5b50565b600081359050612e1881612df2565b92915050565b600060208284031215612e3457612e33612c71565b5b6000612e4284828501612e09565b91505092915050565b600073ffffffffffffffffffffffffffffffffffffffff82169050919050565b6000612e7682612e4b565b9050919050565b612e8681612e6b565b82525050565b6000602082019050612ea16000830184612e7d565b92915050565b612eb081612e6b565b8114612ebb57600080fd5b50565b600081359050612ecd81612ea7565b92915050565b60008060408385031215612eea57612ee9612c71565b5b6000612ef885828601612ebe565b9250506020612f0985828601612e09565b9150509250929050565b600081519050919050565b600082825260208201905092915050565b6000819050602082019050919050565b612f4881612de8565b82525050565b6000612f5982612e4b565b9050919050565b612f6981612f4e565b82525050565b612f7881612d00565b82525050565b60a082016000820151612f946000850182612f3f565b506020820151612fa76020850182612f60565b506040820151612fba6040850182612f60565b506060820151612fcd6060850182612f3f565b506080820151612fe06080850182612f6f565b50505050565b6000612ff28383612f7e565b60a08301905092915050565b6000602082019050919050565b600061301682612f13565b6130208185612f1e565b935061302b83612f2f565b8060005b8381101561305c5781516130438882612fe6565b975061304e83612ffe565b92505060018101905061302f565b5085935050505092915050565b60006020820190508181036000830152613083818461300b565b905092915050565b61309481612de8565b82525050565b60006020820190506130af600083018461308b565b92915050565b6000806000606084860312156130ce576130cd612c71565b5b60006130dc86828701612ebe565b93505060206130ed86828701612ebe565b92505060406130fe86828701612e09565b9150509250925092565b60006020828403121561311e5761311d612c71565b5b600061312c84828501612ebe565b91505092915050565b600080fd5b600080fd5b7f4e487b7100000000000000000000000000000000000000000000000000000000600052604160045260246000fd5b61317782612d7c565b810181811067ffffffffffffffff821117156131965761319561313f565b5b80604052505050565b60006131a9612c67565b90506131b5828261316e565b919050565b600067ffffffffffffffff8211156131d5576131d461313f565b5b6131de82612d7c565b9050602081019050919050565b82818337600083830152505050565b600061320d613208846131ba565b61319f565b9050828152602081018484840111156132295761322861313a565b5b6132348482856131eb565b509392505050565b600082601f83011261325157613250613135565b5b81356132618482602086016131fa565b91505092915050565b6000806040838503121561328157613280612c71565b5b600083013567ffffffffffffffff81111561329f5761329e612c76565b5b6132ab8582860161323c565b92505060206132bc85828601612e09565b9150509250929050565b6132cf81612d00565b81146132da57600080fd5b50565b6000813590506132ec816132c6565b92915050565b6000806040838503121561330957613308612c71565b5b600061331785828601612ebe565b9250506020613328858286016132dd565b9150509250929050565b600067ffffffffffffffff82111561334d5761334c61313f565b5b61335682612d7c565b9050602081019050919050565b600061337661337184613332565b61319f565b9050828152602081018484840111156133925761339161313a565b5b61339d8482856131eb565b509392505050565b600082601f8301126133ba576133b9613135565b5b81356133ca848260208601613363565b91505092915050565b600080600080608085870312156133ed576133ec612c71565b5b60006133fb87828801612ebe565b945050602061340c87828801612ebe565b935050604061341d87828801612e09565b925050606085013567ffffffffffffffff81111561343e5761343d612c76565b5b61344a878288016133a5565b91505092959194509250565b6000806040838503121561346d5761346c612c71565b5b600061347b85828601612e09565b925050602061348c85828601612e09565b9150509250929050565b600080604083850312156134ad576134ac612c71565b5b60006134bb85828601612ebe565b92505060206134cc85828601612ebe565b9150509250929050565b7f4e487b7100000000000000000000000000000000000000000000000000000000600052602260045260246000fd5b6000600282049050600182168061351d57607f821691505b6020821081036135305761352f6134d6565b5b50919050565b7f4552433732313a20617070726f76616c20746f2063757272656e74206f776e6560008201527f7200000000000000000000000000000000000000000000000000000000000000602082015250565b6000613592602183612d41565b915061359d82613536565b604082019050919050565b600060208201905081810360008301526135c181613585565b9050919050565b7f4552433732313a20617070726f76652063616c6c6572206973206e6f7420746f60008201527f6b656e206f776e6572206f7220617070726f76656420666f7220616c6c000000602082015250565b6000613624603d83612d41565b915061362f826135c8565b604082019050919050565b6000602082019050818103600083015261365381613617565b9050919050565b7f4e487b7100000000000000000000000000000000000000000000000000000000600052601160045260246000fd5b600061369482612de8565b915061369f83612de8565b92508282039050818111156136b7576136b661365a565b5b92915050565b60006136c882612de8565b91506136d383612de8565b92508282019050808211156136eb576136ea61365a565b5b92915050565b7f4e487b7100000000000000000000000000000000000000000000000000000000600052603260045260246000fd5b600061372b82612de8565b91507fffffffffffffffffffffffffffffffffffffffffffffffffffffffffffffffff820361375d5761375c61365a565b5b600182019050919050565b7f4552433732313a2063616c6c6572206973206e6f7420746f6b656e206f776e6560008201527f72206f7220617070726f76656400000000000000000000000000000000000000602082015250565b60006137c4602d83612d41565b91506137cf82613768565b604082019050919050565b600060208201905081810360008301526137f3816137b7565b9050919050565b7f4e6f2062616c616e636520746f20776974686472617700000000000000000000600082015250565b6000613830601683612d41565b915061383b826137fa565b602082019050919050565b6000602082019050818103600083015261385f81613823565b9050919050565b7f4552433732313a20696e76616c696420746f6b656e2049440000000000000000600082015250565b600061389c601883612d41565b91506138a782613866565b602082019050919050565b600060208201905081810360008301526138cb8161388f565b9050919050565b7f4552433732313a2061646472657373207a65726f206973206e6f74206120766160008201527f6c6964206f776e65720000000000000000000000000000000000000000000000602082015250565b600061392e602983612d41565b9150613939826138d2565b604082019050919050565b6000602082019050818103600083015261395d81613921565b9050919050565b7f6f6e6c79206f776e6572206f6620746865206d61726b6574706c61636520636160008201527f6e206368616e676520746865206c697374696e67207072696365000000000000602082015250565b60006139c0603a83612d41565b91506139cb82613964565b604082019050919050565b600060208201905081810360008301526139ef816139b3565b9050919050565b7f4f6e6c79206d61726b6574706c616365206f776e65722063616e20757064617460008201527f65206c697374696e672070726963652e00000000000000000000000000000000602082015250565b6000613a52603083612d41565b9150613a5d826139f6565b604082019050919050565b60006020820190508181036000830152613a8181613a45565b9050919050565b7f506c65617365207375626d6974207468652061736b696e67207072696365206960008201527f6e206f7264657220746f20636f6d706c65746520746865207075726368617365602082015250565b6000613ae4604083612d41565b9150613aef82613a88565b604082019050919050565b60006020820190508181036000830152613b1381613ad7565b9050919050565b600081905092915050565b6000613b3082612d36565b613b3a8185613b1a565b9350613b4a818560208601612d52565b80840191505092915050565b6000613b628285613b25565b9150613b6e8284613b25565b91508190509392505050565b7f4f6e6c79206974656d206f776e65722063616e20706572666f726d207468697360008201527f206f7065726174696f6e00000000000000000000000000000000000000000000602082015250565b6000613bd6602a83612d41565b9150613be182613b7a565b604082019050919050565b60006020820190508181036000830152613c0581613bc9565b9050919050565b7f5072696365206d75737420626520657175616c20746f206c697374696e67207060008201527f7269636500000000000000000000000000000000000000000000000000000000602082015250565b6000613c68602483612d41565b9150613c7382613c0c565b604082019050919050565b60006020820190508181036000830152613c9781613c5b565b9050919050565b7f4552433732313a207472616e736665722066726f6d20696e636f72726563742060008201527f6f776e6572000000000000000000000000000000000000000000000000000000602082015250565b6000613cfa602583612d41565b9150613d0582613c9e565b604082019050919050565b60006020820190508181036000830152613d2981613ced565b9050919050565b7f4552433732313a207472616e7366657220746f20746865207a65726f2061646460008201527f7265737300000000000000000000000000000000000000000000000000000000602082015250565b6000613d8c602483612d41565b9150613d9782613d30565b604082019050919050565b60006020820190508181036000830152613dbb81613d7f565b9050919050565b7f4552433732313a206d696e7420746f20746865207a65726f2061646472657373600082015250565b6000613df8602083612d41565b9150613e0382613dc2565b602082019050919050565b60006020820190508181036000830152613e2781613deb565b9050919050565b7f4552433732313a20746f6b656e20616c7265616479206d696e74656400000000600082015250565b6000613e64601c83612d41565b9150613e6f82613e2e565b602082019050919050565b60006020820190508181036000830152613e9381613e57565b9050919050565b7f45524337323155524953746f726167653a2055524920736574206f66206e6f6e60008201527f6578697374656e7420746f6b656e000000000000000000000000000000000000602082015250565b6000613ef6602e83612d41565b9150613f0182613e9a565b604082019050919050565b60006020820190508181036000830152613f2581613ee9565b9050919050565b60008190508160005260206000209050919050565b60006020601f8301049050919050565b600082821b905092915050565b600060088302613f8e7fffffffffffffffffffffffffffffffffffffffffffffffffffffffffffffffff82613f51565b613f988683613f51565b95508019841693508086168417925050509392505050565b6000819050919050565b6000613fd5613fd0613fcb84612de8565b613fb0565b612de8565b9050919050565b6000819050919050565b613fef83613fba565b614003613ffb82613fdc565b848454613f5e565b825550505050565b600090565b61401861400b565b614023818484613fe6565b505050565b5b818110156140475761403c600082614010565b600181019050614029565b5050565b601f82111561408c5761405d81613f2c565b61406684613f41565b81016020851015614075578190505b61408961408185613f41565b830182614028565b50505b505050565b600082821c905092915050565b60006140af60001984600802614091565b1980831691505092915050565b60006140c8838361409e565b9150826002028217905092915050565b6140e182612d36565b67ffffffffffffffff8111156140fa576140f961313f565b5b6141048254613505565b61410f82828561404b565b600060209050601f8311600181146141425760008415614130578287015190505b61413a85826140bc565b8655506141a2565b601f19841661415086613f2c565b60005b8281101561417857848901518255600182019150602085019450602081019050614153565b868310156141955784890151614191601f89168261409e565b8355505b6001600288020188555050505b505050505050565b7f5072696365206d757374206265206174206c6561737420312077656900000000600082015250565b60006141e0601c83612d41565b91506141eb826141aa565b602082019050919050565b6000602082019050818103600083015261420f816141d3565b9050919050565b600060808201905061422b6000830187612e7d565b6142386020830186612e7d565b614245604083018561308b565b6142526060830184612d0c565b95945050505050565b7f4552433732313a20617070726f766520746f2063616c6c657200000000000000600082015250565b6000614291601983612d41565b915061429c8261425b565b602082019050919050565b600060208201905081810360008301526142c081614284565b9050919050565b7f4552433732313a207472616e7366657220746f206e6f6e20455243373231526560008201527f63656976657220696d706c656d656e7465720000000000000000000000000000602082015250565b6000614323603283612d41565b915061432e826142c7565b604082019050919050565b6000602082019050818103600083015261435281614316565b9050919050565b7f436f756e7465723a2064656372656d656e74206f766572666c6f770000000000600082015250565b600061438f601b83612d41565b915061439a82614359565b602082019050919050565b600060208201905081810360008301526143be81614382565b9050919050565b600081519050919050565b600082825260208201905092915050565b60006143ec826143c5565b6143f681856143d0565b9350614406818560208601612d52565b61440f81612d7c565b840191505092915050565b600060808201905061442f6000830187612e7d565b61443c6020830186612e7d565b614449604083018561308b565b818103606083015261445b81846143e1565b905095945050505050565b60008151905061447581612ca7565b92915050565b60006020828403121561449157614490612c71565b5b600061449f84828501614466565b91505092915050565b7f4e487b7100000000000000000000000000000000000000000000000000000000600052601260045260246000fdfea264697066735822122000d1057e5918756335f959fce54563c17d66af5619a0c2d905ff315f3722589d64736f6c63430008130033",
  "linkReferences": {},
  "deployedLinkReferences": {}
}